{
  "contractName": "ContractCollaborationManager",
  "abi": [
    {
      "constant": true,
      "inputs": [
        {
          "name": "",
          "type": "uint256"
        }
      ],
      "name": "tasksArray",
      "outputs": [
        {
          "name": "",
          "type": "uint256"
        }
      ],
      "payable": false,
      "stateMutability": "view",
      "type": "function",
      "signature": "0x33251a3a"
    },
    {
      "constant": true,
      "inputs": [],
      "name": "supervisor",
      "outputs": [
        {
          "name": "",
          "type": "address"
        }
      ],
      "payable": false,
      "stateMutability": "view",
      "type": "function",
      "signature": "0x56e4b68b"
    },
    {
      "constant": true,
      "inputs": [],
      "name": "taskcount",
      "outputs": [
        {
          "name": "",
          "type": "uint256"
        }
      ],
      "payable": false,
      "stateMutability": "view",
      "type": "function",
      "signature": "0x8bd48089"
    },
    {
      "constant": true,
      "inputs": [],
      "name": "collabcount",
      "outputs": [
        {
          "name": "",
          "type": "uint256"
        }
      ],
      "payable": false,
      "stateMutability": "view",
      "type": "function",
      "signature": "0xe286fd2e"
    },
    {
      "constant": true,
      "inputs": [
        {
          "name": "",
          "type": "uint256"
        }
      ],
      "name": "collaboratorAddressArray",
      "outputs": [
        {
          "name": "",
          "type": "address"
        }
      ],
      "payable": false,
      "stateMutability": "view",
      "type": "function",
      "signature": "0xe7f8dbe0"
    },
    {
      "inputs": [],
      "payable": true,
      "stateMutability": "payable",
      "type": "constructor",
      "signature": "constructor"
    },
    {
      "payable": true,
      "stateMutability": "payable",
      "type": "fallback"
    },
    {
      "anonymous": false,
      "inputs": [
        {
          "indexed": true,
          "name": "taskid",
          "type": "uint256"
        }
      ],
      "name": "AddedTaskEvent",
      "type": "event",
      "signature": "0x59352054e0639bb4f53f8da62e456e9bff2e1a7f6a7590e4e4ababb410e0b396"
    },
    {
      "anonymous": false,
      "inputs": [
        {
          "indexed": true,
          "name": "taskid",
          "type": "uint256"
        }
      ],
      "name": "LastTaskCompleted",
      "type": "event",
      "signature": "0x0506e70354064bc35d34360f3e6cc91274799235319fdd9aaef4c8157818098e"
    },
    {
      "anonymous": false,
      "inputs": [
        {
          "indexed": true,
          "name": "value",
          "type": "uint256"
        },
        {
          "indexed": true,
          "name": "reciever",
          "type": "address"
        }
      ],
      "name": "ActionEvent",
      "type": "event",
      "signature": "0xf0102b46640b5917994a9b667d33dadc742803ec96e35dde33e0b40a9973b206"
    },
    {
      "constant": true,
      "inputs": [],
      "name": "getContractBalance",
      "outputs": [
        {
          "name": "",
          "type": "uint256"
        }
      ],
      "payable": false,
      "stateMutability": "view",
      "type": "function",
      "signature": "0x6f9fb98a"
    },
    {
      "constant": false,
      "inputs": [
        {
          "name": "_gint",
          "type": "uint256"
        }
      ],
      "name": "createGlobalIntPayload",
      "outputs": [
        {
          "name": "",
          "type": "uint256"
        }
      ],
      "payable": false,
      "stateMutability": "nonpayable",
      "type": "function",
      "signature": "0x6ad2c97e"
    },
    {
      "constant": true,
      "inputs": [
        {
          "name": "_gintid",
          "type": "uint256"
        }
      ],
      "name": "getGlobalIntPayloadValueById",
      "outputs": [
        {
          "name": "",
          "type": "uint256"
        }
      ],
      "payable": false,
      "stateMutability": "view",
      "type": "function",
      "signature": "0x9b12d113"
    },
    {
      "constant": true,
      "inputs": [
        {
          "name": "_gstrid",
          "type": "uint256"
        }
      ],
      "name": "getGlobalStringPayloadValueById",
      "outputs": [
        {
          "name": "",
          "type": "string"
        }
      ],
      "payable": false,
      "stateMutability": "view",
      "type": "function",
      "signature": "0xc192f0c8"
    },
    {
      "constant": false,
      "inputs": [
        {
          "name": "_gstring",
          "type": "string"
        }
      ],
      "name": "createGlobalStringPayload",
      "outputs": [
        {
          "name": "",
          "type": "uint256"
        }
      ],
      "payable": false,
      "stateMutability": "nonpayable",
      "type": "function",
      "signature": "0x3e7a4cf1"
    },
    {
      "constant": false,
      "inputs": [
        {
          "name": "_id",
          "type": "uint256"
        },
        {
          "name": "_value",
          "type": "uint256"
        }
      ],
      "name": "changeGlobalIntPayload",
      "outputs": [
        {
          "name": "",
          "type": "bool"
        }
      ],
      "payable": false,
      "stateMutability": "nonpayable",
      "type": "function",
      "signature": "0x4c607e83"
    },
    {
      "constant": false,
      "inputs": [
        {
          "name": "_id",
          "type": "uint256"
        },
        {
          "name": "_value",
          "type": "string"
        }
      ],
      "name": "changeGlobalStringPayload",
      "outputs": [
        {
          "name": "",
          "type": "bool"
        }
      ],
      "payable": false,
      "stateMutability": "nonpayable",
      "type": "function",
      "signature": "0xd68852ca"
    },
    {
      "constant": true,
      "inputs": [],
      "name": "getGlobalIntegerPayloadCount",
      "outputs": [
        {
          "name": "payloadCount",
          "type": "uint256"
        }
      ],
      "payable": false,
      "stateMutability": "view",
      "type": "function",
      "signature": "0xb004dbde"
    },
    {
      "constant": true,
      "inputs": [],
      "name": "getGlobalStringPayloadCount",
      "outputs": [
        {
          "name": "payloadCount",
          "type": "uint256"
        }
      ],
      "payable": false,
      "stateMutability": "view",
      "type": "function",
      "signature": "0xd04ec161"
    },
    {
      "constant": false,
      "inputs": [
        {
          "name": "_collaborator",
          "type": "address"
        },
        {
          "name": "_organisation",
          "type": "string"
        }
      ],
      "name": "addCollaborator",
      "outputs": [],
      "payable": false,
      "stateMutability": "nonpayable",
      "type": "function",
      "signature": "0x1457ffd6"
    },
    {
      "constant": true,
      "inputs": [
        {
          "name": "_toaddcollaborator",
          "type": "address"
        }
      ],
      "name": "checkForAllowedCollaborator",
      "outputs": [
        {
          "name": "",
          "type": "bool"
        }
      ],
      "payable": false,
      "stateMutability": "view",
      "type": "function",
      "signature": "0x2cc389e9"
    },
    {
      "constant": false,
      "inputs": [
        {
          "name": "_activity",
          "type": "string"
        },
        {
          "name": "_taskresource",
          "type": "address"
        },
        {
          "name": "_tasktype",
          "type": "uint8"
        },
        {
          "name": "_requirements",
          "type": "uint256[]"
        }
      ],
      "name": "createTask",
      "outputs": [],
      "payable": false,
      "stateMutability": "nonpayable",
      "type": "function",
      "signature": "0xc971c34c"
    },
    {
      "constant": true,
      "inputs": [
        {
          "name": "_id",
          "type": "uint256"
        }
      ],
      "name": "testIfDecisionExists",
      "outputs": [
        {
          "name": "",
          "type": "bool"
        }
      ],
      "payable": false,
      "stateMutability": "view",
      "type": "function",
      "signature": "0x1a5780b9"
    },
    {
      "constant": true,
      "inputs": [
        {
          "name": "_id",
          "type": "uint256"
        }
      ],
      "name": "getDecisionType",
      "outputs": [
        {
          "name": "decisionType",
          "type": "uint8"
        }
      ],
      "payable": false,
      "stateMutability": "view",
      "type": "function",
      "signature": "0x0c7b648e"
    },
    {
      "constant": true,
      "inputs": [
        {
          "name": "_id",
          "type": "uint256"
        }
      ],
      "name": "getStringDecision",
      "outputs": [
        {
          "name": "gatewaytype",
          "type": "uint8"
        },
        {
          "name": "decisionType",
          "type": "uint8"
        },
        {
          "name": "completed",
          "type": "bool"
        },
        {
          "name": "competitors",
          "type": "uint256[]"
        },
        {
          "name": "operator",
          "type": "uint8"
        },
        {
          "components": [
            {
              "name": "idtoglobalstringpayload",
              "type": "uint256"
            },
            {
              "name": "local",
              "type": "string"
            }
          ],
          "name": "stringoperants",
          "type": "tuple"
        }
      ],
      "payable": false,
      "stateMutability": "view",
      "type": "function",
      "signature": "0x8306fd05"
    },
    {
      "constant": true,
      "inputs": [
        {
          "name": "_id",
          "type": "uint256"
        }
      ],
      "name": "getIntegerDecision",
      "outputs": [
        {
          "name": "gatewaytype",
          "type": "uint8"
        },
        {
          "name": "decisionType",
          "type": "uint8"
        },
        {
          "name": "completed",
          "type": "bool"
        },
        {
          "name": "competitors",
          "type": "uint256[]"
        },
        {
          "name": "operator",
          "type": "uint8"
        },
        {
          "components": [
            {
              "name": "idtoglobalintegerpayload",
              "type": "uint256"
            },
            {
              "name": "local",
              "type": "uint256"
            }
          ],
          "name": "integeroperants",
          "type": "tuple"
        }
      ],
      "payable": false,
      "stateMutability": "view",
      "type": "function",
      "signature": "0x67caed36"
    },
    {
      "constant": true,
      "inputs": [
        {
          "name": "_id",
          "type": "uint256"
        }
      ],
      "name": "testIfActionExists",
      "outputs": [
        {
          "name": "",
          "type": "bool"
        }
      ],
      "payable": false,
      "stateMutability": "view",
      "type": "function",
      "signature": "0x0e26f8fe"
    },
    {
      "constant": false,
      "inputs": [
        {
          "name": "_id",
          "type": "uint256"
        },
        {
          "name": "_gatewaytype",
          "type": "uint8"
        },
        {
          "name": "_type",
          "type": "uint8"
        },
        {
          "name": "_op",
          "type": "uint8"
        },
        {
          "components": [
            {
              "name": "idtoglobalintegerpayload",
              "type": "uint256"
            },
            {
              "name": "local",
              "type": "uint256"
            }
          ],
          "name": "_intoperants",
          "type": "tuple"
        },
        {
          "name": "_competitors",
          "type": "uint256[]"
        }
      ],
      "name": "addIntDecisionToTaskId",
      "outputs": [
        {
          "name": "",
          "type": "bool"
        }
      ],
      "payable": false,
      "stateMutability": "nonpayable",
      "type": "function",
      "signature": "0x94dd9eef"
    },
    {
      "constant": false,
      "inputs": [
        {
          "name": "_id",
          "type": "uint256"
        },
        {
          "name": "_gatewaytype",
          "type": "uint8"
        },
        {
          "name": "_type",
          "type": "uint8"
        },
        {
          "name": "_op",
          "type": "uint8"
        },
        {
          "components": [
            {
              "name": "idtoglobalstringpayload",
              "type": "uint256"
            },
            {
              "name": "local",
              "type": "string"
            }
          ],
          "name": "_stroperants",
          "type": "tuple"
        },
        {
          "name": "_competitors",
          "type": "uint256[]"
        }
      ],
      "name": "addStringDecisionToTaskId",
      "outputs": [
        {
          "name": "",
          "type": "bool"
        }
      ],
      "payable": false,
      "stateMutability": "nonpayable",
      "type": "function",
      "signature": "0xc910e597"
    },
    {
      "constant": false,
      "inputs": [
        {
          "name": "_id",
          "type": "uint256"
        },
        {
          "name": "_value",
          "type": "uint256"
        },
        {
          "name": "_receiver",
          "type": "address"
        }
      ],
      "name": "addActionToTaskId",
      "outputs": [
        {
          "name": "",
          "type": "bool"
        }
      ],
      "payable": false,
      "stateMutability": "nonpayable",
      "type": "function",
      "signature": "0xb95586e6"
    },
    {
      "constant": true,
      "inputs": [],
      "name": "getTasks",
      "outputs": [
        {
          "name": "",
          "type": "uint256[]"
        }
      ],
      "payable": false,
      "stateMutability": "view",
      "type": "function",
      "signature": "0x04a87e38"
    },
    {
      "constant": true,
      "inputs": [],
      "name": "getCollaborators",
      "outputs": [
        {
          "name": "",
          "type": "address[]"
        }
      ],
      "payable": false,
      "stateMutability": "view",
      "type": "function",
      "signature": "0xffad0fc6"
    },
    {
      "constant": true,
      "inputs": [
        {
          "name": "_firststring",
          "type": "string"
        },
        {
          "name": "_secondstring",
          "type": "string"
        }
      ],
      "name": "stringEquals",
      "outputs": [
        {
          "name": "",
          "type": "bool"
        }
      ],
      "payable": false,
      "stateMutability": "pure",
      "type": "function",
      "signature": "0xfebc9dec"
    },
    {
      "constant": true,
      "inputs": [
        {
          "name": "_id",
          "type": "uint256"
        }
      ],
      "name": "isDecisionClosed",
      "outputs": [
        {
          "name": "",
          "type": "bool"
        }
      ],
      "payable": false,
      "stateMutability": "view",
      "type": "function",
      "signature": "0x1ed2ac36"
    },
    {
      "constant": false,
      "inputs": [
        {
          "name": "_id",
          "type": "uint256"
        }
      ],
      "name": "setTaskOnCompleted",
      "outputs": [
        {
          "name": "success",
          "type": "bool"
        }
      ],
      "payable": false,
      "stateMutability": "nonpayable",
      "type": "function",
      "signature": "0x63e66d04"
    },
    {
      "constant": true,
      "inputs": [
        {
          "name": "_id",
          "type": "uint256"
        }
      ],
      "name": "isTaskCompletedById",
      "outputs": [
        {
          "name": "success",
          "type": "bool"
        }
      ],
      "payable": false,
      "stateMutability": "view",
      "type": "function",
      "signature": "0x9849cee9"
    },
    {
      "constant": true,
      "inputs": [
        {
          "name": "_id",
          "type": "uint256"
        }
      ],
      "name": "getTaskById",
      "outputs": [
        {
          "name": "status",
          "type": "bool"
        },
        {
          "name": "description",
          "type": "string"
        },
        {
          "name": "resource",
          "type": "address"
        },
        {
          "name": "tasktype",
          "type": "uint8"
        },
        {
          "name": "requirements",
          "type": "uint256[]"
        }
      ],
      "payable": false,
      "stateMutability": "view",
      "type": "function",
      "signature": "0x976217cd"
    },
    {
      "constant": true,
      "inputs": [
        {
          "name": "_id",
          "type": "uint256"
        }
      ],
      "name": "getTaskStatusById",
      "outputs": [
        {
          "name": "",
          "type": "bool"
        }
      ],
      "payable": false,
      "stateMutability": "view",
      "type": "function",
      "signature": "0x22759612"
    },
    {
      "constant": true,
      "inputs": [
        {
          "name": "_id",
          "type": "uint256"
        }
      ],
      "name": "getTaskActivityById",
      "outputs": [
        {
          "name": "",
          "type": "string"
        }
      ],
      "payable": false,
      "stateMutability": "view",
      "type": "function",
      "signature": "0xdbc38a82"
    },
    {
      "constant": true,
      "inputs": [
        {
          "name": "_id",
          "type": "uint256"
        }
      ],
      "name": "getTaskRequirementsById",
      "outputs": [
        {
          "name": "",
          "type": "uint256[]"
        }
      ],
      "payable": false,
      "stateMutability": "view",
      "type": "function",
      "signature": "0x95cffdf8"
    },
    {
      "constant": true,
      "inputs": [],
      "name": "getCollaboratorCount",
      "outputs": [
        {
          "name": "",
          "type": "uint256"
        }
      ],
      "payable": false,
      "stateMutability": "view",
      "type": "function",
      "signature": "0xa2425927"
    },
    {
      "constant": true,
      "inputs": [],
      "name": "getTaskCount",
      "outputs": [
        {
          "name": "",
          "type": "uint256"
        }
      ],
      "payable": false,
      "stateMutability": "view",
      "type": "function",
      "signature": "0xc17a340e"
    },
    {
      "constant": true,
      "inputs": [
        {
          "components": [
            {
              "name": "gatewaytype",
              "type": "uint8"
            },
            {
              "name": "typ",
              "type": "uint8"
            },
            {
              "name": "completed",
              "type": "bool"
            },
            {
              "name": "exists",
              "type": "bool"
            },
            {
              "name": "competitors",
              "type": "uint256[]"
            },
            {
              "name": "operator",
              "type": "uint8"
            },
            {
              "components": [
                {
                  "name": "idtoglobalintegerpayload",
                  "type": "uint256"
                },
                {
                  "name": "local",
                  "type": "uint256"
                }
              ],
              "name": "integeroperants",
              "type": "tuple"
            },
            {
              "components": [
                {
                  "name": "idtoglobalstringpayload",
                  "type": "uint256"
                },
                {
                  "name": "local",
                  "type": "string"
                }
              ],
              "name": "stringoperants",
              "type": "tuple"
            }
          ],
          "name": "_decision",
          "type": "tuple"
        }
      ],
      "name": "evaluateDecision",
      "outputs": [
        {
          "name": "",
          "type": "bool"
        }
      ],
      "payable": false,
      "stateMutability": "view",
      "type": "function",
      "signature": "0x9472c939"
    }
  ],
  "bytecode": "0x60806040526000600181905550336000806101000a81548173ffffffffffffffffffffffffffffffffffffffff021916908373ffffffffffffffffffffffffffffffffffffffff16021790555061451e8061005b6000396000f3fe608060405260043610610242576000357c01000000000000000000000000000000000000000000000000000000009004806394dd9eef11610140578063c192f0c8116100c8578063dbc38a821161008c578063dbc38a8214610977578063e286fd2e146109b4578063e7f8dbe0146109df578063febc9dec14610a1c578063ffad0fc614610a5957610242565b8063c192f0c81461086c578063c910e597146108a9578063c971c34c146108e6578063d04ec1611461090f578063d68852ca1461093a57610242565b80639b12d1131161010f5780639b12d11314610771578063a2425927146107ae578063b004dbde146107d9578063b95586e614610804578063c17a340e1461084157610242565b806394dd9eef1461067957806395cffdf8146106b6578063976217cd146106f35780639849cee91461073457610242565b80633e7a4cf1116101ce5780636ad2c97e116101925780636ad2c97e146105675780636f9fb98a146105a45780638306fd05146105cf5780638bd48089146106115780639472c9391461063c57610242565b80633e7a4cf1146104435780634c607e831461048057806356e4b68b146104bd57806363e66d04146104e857806367caed361461052557610242565b80631a5780b9116102155780631a5780b9146103125780631ed2ac361461034f578063227596121461038c5780632cc389e9146103c957806333251a3a1461040657610242565b806304a87e38146102445780630c7b648e1461026f5780630e26f8fe146102ac5780631457ffd6146102e9575b005b34801561025057600080fd5b50610259610a84565b6040516102669190613eed565b60405180910390f35b34801561027b57600080fd5b506102966004803603610291919081019061389c565b610adc565b6040516102a39190613f8b565b60405180910390f35b3480156102b857600080fd5b506102d360048036036102ce919081019061389c565b610b0c565b6040516102e09190613f0f565b60405180910390f35b3480156102f557600080fd5b50610310600480360361030b919081019061369e565b610b54565b005b34801561031e57600080fd5b506103396004803603610334919081019061389c565b610c8c565b6040516103469190613f0f565b60405180910390f35b34801561035b57600080fd5b506103766004803603610371919081019061389c565b610cd4565b6040516103839190613f0f565b60405180910390f35b34801561039857600080fd5b506103b360048036036103ae919081019061389c565b610dc1565b6040516103c09190613f0f565b60405180910390f35b3480156103d557600080fd5b506103f060048036036103eb9190810190613675565b610dee565b6040516103fd9190613f0f565b60405180910390f35b34801561041257600080fd5b5061042d6004803603610428919081019061389c565b610e47565b60405161043a9190614184565b60405180910390f35b34801561044f57600080fd5b5061046a6004803603610465919081019061371b565b610e6a565b6040516104779190614184565b60405180910390f35b34801561048c57600080fd5b506104a760048036036104a29190810190613a73565b610ebb565b6040516104b49190613f0f565b60405180910390f35b3480156104c957600080fd5b506104d2610ee5565b6040516104df9190613eb0565b60405180910390f35b3480156104f457600080fd5b5061050f600480360361050a919081019061389c565b610f0a565b60405161051c9190613f0f565b60405180910390f35b34801561053157600080fd5b5061054c6004803603610547919081019061389c565b611644565b60405161055e96959493929190613fa6565b60405180910390f35b34801561057357600080fd5b5061058e6004803603610589919081019061389c565b6117f6565b60405161059b9190614184565b60405180910390f35b3480156105b057600080fd5b506105b9611834565b6040516105c69190614184565b60405180910390f35b3480156105db57600080fd5b506105f660048036036105f1919081019061389c565b611853565b6040516106089695949392919061400e565b60405180910390f35b34801561061d57600080fd5b50610626611a9d565b6040516106339190614184565b60405180910390f35b34801561064857600080fd5b50610663600480360361065e919081019061385b565b611aa3565b6040516106709190613f0f565b60405180910390f35b34801561068557600080fd5b506106a0600480360361069b91908101906138c5565b611d4a565b6040516106ad9190613f0f565b60405180910390f35b3480156106c257600080fd5b506106dd60048036036106d8919081019061389c565b611ec1565b6040516106ea9190613eed565b60405180910390f35b3480156106ff57600080fd5b5061071a6004803603610715919081019061389c565b611f2f565b60405161072b959493929190613f2a565b60405180910390f35b34801561074057600080fd5b5061075b6004803603610756919081019061389c565b6120e4565b6040516107689190613f0f565b60405180910390f35b34801561077d57600080fd5b506107986004803603610793919081019061389c565b612129565b6040516107a59190614184565b60405180910390f35b3480156107ba57600080fd5b506107c361214c565b6040516107d09190614184565b60405180910390f35b3480156107e557600080fd5b506107ee612159565b6040516107fb9190614184565b60405180910390f35b34801561081057600080fd5b5061082b60048036036108269190810190613aaf565b612166565b6040516108389190613f0f565b60405180910390f35b34801561084d57600080fd5b50610856612243565b6040516108639190614184565b60405180910390f35b34801561087857600080fd5b50610893600480360361088e919081019061389c565b61224d565b6040516108a0919061407d565b60405180910390f35b3480156108b557600080fd5b506108d060048036036108cb9190810190613966565b612308565b6040516108dd9190613f0f565b60405180910390f35b3480156108f257600080fd5b5061090d6004803603610908919081019061375c565b612492565b005b34801561091b57600080fd5b5061092461262b565b6040516109319190614184565b60405180910390f35b34801561094657600080fd5b50610961600480360361095c9190810190613a1f565b612638565b60405161096e9190613f0f565b60405180910390f35b34801561098357600080fd5b5061099e6004803603610999919081019061389c565b612672565b6040516109ab919061407d565b60405180910390f35b3480156109c057600080fd5b506109c961272a565b6040516109d69190614184565b60405180910390f35b3480156109eb57600080fd5b50610a066004803603610a01919081019061389c565b612730565b604051610a139190613eb0565b60405180910390f35b348015610a2857600080fd5b50610a436004803603610a3e91908101906137ef565b61276e565b604051610a509190613f0f565b60405180910390f35b348015610a6557600080fd5b50610a6e6129bb565b604051610a7b9190613ecb565b60405180910390f35b60606004805480602002602001604051908101604052809291908181526020018280548015610ad257602002820191906000526020600020905b815481526020019060010190808311610abe575b5050505050905090565b60006003600083815260200190815260200160002060040160000160019054906101000a900460ff169050919050565b60006001151560036000848152602001908152602001600020600b0160000160009054906101000a900460ff1615151415610b4a5760019050610b4f565b600090505b919050565b60001515610b6183610dee565b1515141515610ba5576040517f08c379a0000000000000000000000000000000000000000000000000000000008152600401610b9c90614164565b60405180910390fd5b6000600560008473ffffffffffffffffffffffffffffffffffffffff1673ffffffffffffffffffffffffffffffffffffffff168152602001908152602001600020905081816000019080519060200190610c0092919061300e565b5060018160010160006101000a81548160ff021916908315150217905550600160068490806001815401808255809150509060018203906000526020600020016000909192909190916101000a81548173ffffffffffffffffffffffffffffffffffffffff021916908373ffffffffffffffffffffffffffffffffffffffff1602179055505050505050565b6000600115156003600084815260200190815260200160002060040160000160039054906101000a900460ff1615151415610cca5760019050610ccf565b600090505b919050565b60006003600083815260200190815260200160002060040160000160029054906101000a900460ff1615610d0b5760019050610dbc565b60008090505b6003600084815260200190815260200160002060040160010180549050811015610db65760006003600085815260200190815260200160002060040160010182815481101515610d5d57fe5b90600052602060002001549050600115156003600083815260200190815260200160002060040160000160029054906101000a900460ff1615151415610da857600192505050610dbc565b508080600101915050610d11565b50600090505b919050565b60006003600083815260200190815260200160002060000160149054906101000a900460ff169050919050565b6000600560008373ffffffffffffffffffffffffffffffffffffffff1673ffffffffffffffffffffffffffffffffffffffff16815260200190815260200160002060010160009054906101000a900460ff169050919050565b600481815481101515610e5657fe5b906000526020600020016000915090505481565b60006007829080600181540180825580915050906001820390600052602060002001600090919290919091509080519060200190610ea992919061300e565b50506001600780549050039050919050565b600081600884815481101515610ecd57fe5b90600052602060002001819055506001905092915050565b6000809054906101000a900473ffffffffffffffffffffffffffffffffffffffff1681565b6000803373ffffffffffffffffffffffffffffffffffffffff166003600085815260200190815260200160002060000160009054906101000a900473ffffffffffffffffffffffffffffffffffffffff1673ffffffffffffffffffffffffffffffffffffffff16141515610fb3576040517f08c379a0000000000000000000000000000000000000000000000000000000008152600401610faa90614124565b60405180910390fd5b600115156003600085815260200190815260200160002060000160149054906101000a900460ff1615151415610fed57600191505061163f565b60606003600085815260200190815260200160002060030180548060200260200160405190810160405280929190818152602001828054801561104f57602002820191906000526020600020905b81548152602001906001019080831161103b575b5050505050905060008151141561117b5761106984610c8c565b156110805761107784612a49565b9250505061163f565b61108984610b0c565b156111385761109784612e05565b60036000858152602001908152602001600020600b0160020160009054906101000a900473ffffffffffffffffffffffffffffffffffffffff1673ffffffffffffffffffffffffffffffffffffffff1660036000868152602001908152602001600020600b01600101547ff0102b46640b5917994a9b667d33dadc742803ec96e35dde33e0b40a9973b20660405160405180910390a360019250505061163f565b60016003600086815260200190815260200160002060000160146101000a81548160ff02191690831515021790555061117084612f1b565b60019250505061163f565b6000600381111561118857fe5b6003600086815260200190815260200160002060020160009054906101000a900460ff1660038111156111b757fe5b141561131057600115156111e28260008151811015156111d357fe5b906020019060200201516120e4565b15151415611305576111f384610c8c565b1561120a5761120184612a49565b9250505061163f565b61121384610b0c565b156112c25761122184612e05565b60036000858152602001908152602001600020600b0160020160009054906101000a900473ffffffffffffffffffffffffffffffffffffffff1673ffffffffffffffffffffffffffffffffffffffff1660036000868152602001908152602001600020600b01600101547ff0102b46640b5917994a9b667d33dadc742803ec96e35dde33e0b40a9973b20660405160405180910390a360019250505061163f565b60016003600086815260200190815260200160002060000160146101000a81548160ff0219169083151502179055506112fa84612f1b565b60019250505061163f565b60009250505061163f565b6001600381111561131d57fe5b6003600086815260200190815260200160002060020160009054906101000a900460ff16600381111561134c57fe5b141561141f5760008090505b81518110156113a35760011515611385838381518110151561137657fe5b906020019060200201516120e4565b151514156113965782806001019350505b8080600101915050611358565b5080518214156114145760016003600086815260200190815260200160002060000160146101000a81548160ff021916908315150217905550837f0506e70354064bc35d34360f3e6cc91274799235319fdd9aaef4c8157818098e60405160405180910390a260019250505061163f565b60009250505061163f565b6002600381111561142c57fe5b6003600086815260200190815260200160002060020160009054906101000a900460ff16600381111561145b57fe5b141561152e5760008090505b81518110156114b25760011515611494838381518110151561148557fe5b906020019060200201516120e4565b151514156114a55782806001019350505b8080600101915050611467565b5060008211156115235760016003600086815260200190815260200160002060000160146101000a81548160ff021916908315150217905550837f0506e70354064bc35d34360f3e6cc91274799235319fdd9aaef4c8157818098e60405160405180910390a260019250505061163f565b60009250505061163f565b60038081111561153a57fe5b6003600086815260200190815260200160002060020160009054906101000a900460ff16600381111561156957fe5b141561163c5760008090505b81518110156115c057600115156115a2838381518110151561159357fe5b906020019060200201516120e4565b151514156115b35782806001019350505b8080600101915050611575565b5060018214156116315760016003600086815260200190815260200160002060000160146101000a81548160ff021916908315150217905550837f0506e70354064bc35d34360f3e6cc91274799235319fdd9aaef4c8157818098e60405160405180910390a260019250505061163f565b60009250505061163f565b50505b919050565b60008060006060600061165561308e565b61165e87610c8c565b151561169f576040517f08c379a000000000000000000000000000000000000000000000000000000000815260040161169690614144565b60405180910390fd5b6003600088815260200190815260200160002060040160000160009054906101000a900460ff166003600089815260200190815260200160002060040160000160019054906101000a900460ff16600360008a815260200190815260200160002060040160000160029054906101000a900460ff16600360008b8152602001908152602001600020600401600101600360008c815260200190815260200160002060040160020160009054906101000a900460ff16600360008d8152602001908152602001600020600401600301828054806020026020016040519081016040528092919081815260200182805480156117b857602002820191906000526020600020905b8154815260200190600101908083116117a4575b505050505092508060408051908101604052908160008201548152602001600182015481525050905095509550955095509550955091939550919395565b600060088290806001815401808255809150509060018203906000526020600020016000909192909190915055506001600880549050039050919050565b60003073ffffffffffffffffffffffffffffffffffffffff1631905090565b6000806000606060006118646130a8565b61186d87610c8c565b15156118ae576040517f08c379a00000000000000000000000000000000000000000000000000000000081526004016118a590614144565b60405180910390fd5b6003600088815260200190815260200160002060040160000160009054906101000a900460ff166003600089815260200190815260200160002060040160000160019054906101000a900460ff16600360008a815260200190815260200160002060040160000160029054906101000a900460ff16600360008b8152602001908152602001600020600401600101600360008c815260200190815260200160002060040160020160009054906101000a900460ff16600360008d8152602001908152602001600020600401600501828054806020026020016040519081016040528092919081815260200182805480156119c757602002820191906000526020600020905b8154815260200190600101908083116119b3575b505050505092508060408051908101604052908160008201548152602001600182018054600181600116156101000203166002900480601f016020809104026020016040519081016040528092919081815260200182805460018160011615610100020316600290048015611a7d5780601f10611a5257610100808354040283529160200191611a7d565b820191906000526020600020905b815481529060010190602001808311611a6057829003601f168201915b505050505081525050905095509550955095509550955091939550919395565b60015481565b6000806002811115611ab157fe5b82602001516002811115611ac157fe5b1415611c4057606060078360e0015160000151815481101515611ae057fe5b906000526020600020018054600181600116156101000203166002900480601f016020809104026020016040519081016040528092919081815260200182805460018160011615610100020316600290048015611b7e5780601f10611b5357610100808354040283529160200191611b7e565b820191906000526020600020905b815481529060010190602001808311611b6157829003601f168201915b5050505050905073__DecisionLibrary_______________________6388d6e110828560a001518660e00151602001516040518463ffffffff167c0100000000000000000000000000000000000000000000000000000000028152600401611be89392919061409f565b60206040518083038186803b158015611c0057600080fd5b505af4158015611c14573d6000803e3d6000fd5b505050506040513d601f19601f82011682018060405250611c3891908101906136f2565b915050611d45565b60016002811115611c4d57fe5b82602001516002811115611c5d57fe5b1415611d4457600060088360c0015160000151815481101515611c7c57fe5b9060005260206000200154905073__DecisionLibrary_______________________63f297dad7828560a001518660c00151602001516040518463ffffffff167c0100000000000000000000000000000000000000000000000000000000028152600401611cec9392919061419f565b60206040518083038186803b158015611d0457600080fd5b505af4158015611d18573d6000803e3d6000fd5b505050506040513d601f19601f82011682018060405250611d3c91908101906136f2565b915050611d45565b5b919050565b6000611d5587610c8c565b80611d655750611d6487610b0c565b5b15611d735760009050611eb7565b856003600089815260200190815260200160002060040160000160006101000a81548160ff02191690836001811115611da857fe5b0217905550846003600089815260200190815260200160002060040160000160016101000a81548160ff02191690836002811115611de257fe5b0217905550836003600089815260200190815260200160002060040160020160006101000a81548160ff02191690836005811115611e1c57fe5b02179055508260036000898152602001908152602001600020600401600301600082015181600001556020820151816001015590505081600360008981526020019081526020016000206004016001019080519060200190611e7f9291906130c2565b5060016003600089815260200190815260200160002060040160000160036101000a81548160ff021916908315150217905550600190505b9695505050505050565b606060036000838152602001908152602001600020600301805480602002602001604051908101604052809291908181526020018280548015611f2357602002820191906000526020600020905b815481526020019060010190808311611f0f575b50505050509050919050565b6000606060008060606003600087815260200190815260200160002060000160149054906101000a900460ff16600360008881526020019081526020016000206001016003600089815260200190815260200160002060000160009054906101000a900473ffffffffffffffffffffffffffffffffffffffff16600360008a815260200190815260200160002060020160009054906101000a900460ff16600360008b8152602001908152602001600020600301838054600181600116156101000203166002900480601f0160208091040260200160405190810160405280929190818152602001828054600181600116156101000203166002900480156120785780601f1061204d57610100808354040283529160200191612078565b820191906000526020600020905b81548152906001019060200180831161205b57829003601f168201915b50505050509350808054806020026020016040519081016040528092919081815260200182805480156120ca57602002820191906000526020600020905b8154815260200190600101908083116120b6575b505050505090509450945094509450945091939590929450565b6000600115156003600084815260200190815260200160002060000160149054906101000a900460ff161515141561211f5760019050612124565b600090505b919050565b600060088281548110151561213a57fe5b90600052602060002001549050919050565b6000600680549050905090565b6000600880549050905090565b600061217184610c8c565b80612181575061218084610b0c565b5b1561218f576000905061223c565b8260036000868152602001908152602001600020600b0160010181905550600160036000868152602001908152602001600020600b0160000160006101000a81548160ff0219169083151502179055508160036000868152602001908152602001600020600b0160020160006101000a81548173ffffffffffffffffffffffffffffffffffffffff021916908373ffffffffffffffffffffffffffffffffffffffff160217905550600190505b9392505050565b6000600154905090565b606060078281548110151561225e57fe5b906000526020600020018054600181600116156101000203166002900480601f0160208091040260200160405190810160405280929190818152602001828054600181600116156101000203166002900480156122fc5780601f106122d1576101008083540402835291602001916122fc565b820191906000526020600020905b8154815290600101906020018083116122df57829003601f168201915b50505050509050919050565b600061231387610c8c565b80612323575061232287610b0c565b5b156123315760009050612488565b856003600089815260200190815260200160002060040160000160006101000a81548160ff0219169083600181111561236657fe5b0217905550846003600089815260200190815260200160002060040160000160016101000a81548160ff021916908360028111156123a057fe5b0217905550836003600089815260200190815260200160002060040160020160006101000a81548160ff021916908360058111156123da57fe5b0217905550826003600089815260200190815260200160002060040160050160008201518160000155602082015181600101908051906020019061241f92919061310f565b50905050816003600089815260200190815260200160002060040160010190805190602001906124509291906130c2565b5060016003600089815260200190815260200160002060040160000160036101000a81548160ff021916908315150217905550600190505b9695505050505050565b6001151561249f84610dee565b15151415156124e3576040517f08c379a00000000000000000000000000000000000000000000000000000000081526004016124da90614104565b60405180910390fd5b60006003600060015481526020019081526020016000209050838160000160006101000a81548173ffffffffffffffffffffffffffffffffffffffff021916908373ffffffffffffffffffffffffffffffffffffffff16021790555060008160000160146101000a81548160ff0219169083151502179055508481600101908051906020019061257492919061300e565b50828160020160006101000a81548160ff0219169083600381111561259557fe5b0217905550818160030190805190602001906125b29291906130c2565b506004600154908060018154018082558091505090600182039060005260206000200160009091929091909150555060016000815480929190600101919050555060018054037f59352054e0639bb4f53f8da62e456e9bff2e1a7f6a7590e4e4ababb410e0b39660405160405180910390a25050505050565b6000600780549050905090565b60008160078481548110151561264a57fe5b90600052602060002001908051906020019061266792919061300e565b506001905092915050565b6060600360008381526020019081526020016000206001018054600181600116156101000203166002900480601f01602080910402602001604051908101604052809291908181526020018280546001816001161561010002031660029004801561271e5780601f106126f35761010080835404028352916020019161271e565b820191906000526020600020905b81548152906001019060200180831161270157829003601f168201915b50505050509050919050565b60025481565b60068181548110151561273f57fe5b906000526020600020016000915054906101000a900473ffffffffffffffffffffffffffffffffffffffff1681565b6000816040516020018082805190602001908083835b6020831015156127a95780518252602082019150602081019050602083039250612784565b6001836020036101000a03801982511681845116808217855250505050505090500191505060405160208183030381529060405280519060200120836040516020018082805190602001908083835b60208310151561281d57805182526020820191506020810190506020830392506127f8565b6001836020036101000a0380198251168184511680821785525050505050509050019150506040516020818303038152906040528051906020012014151561286857600090506129b5565b6060839050606083905080518251141515612888576000925050506129b5565b60008090505b82518110156129ad5781818151811015156128a557fe5b9060200101517f010000000000000000000000000000000000000000000000000000000000000090047f0100000000000000000000000000000000000000000000000000000000000000027effffffffffffffffffffffffffffffffffffffffffffffffffffffffffffff1916838281518110151561292057fe5b9060200101517f010000000000000000000000000000000000000000000000000000000000000090047f0100000000000000000000000000000000000000000000000000000000000000027effffffffffffffffffffffffffffffffffffffffffffffffffffffffffffff19161415156129a057600093505050506129b5565b808060010191505061288e565b506001925050505b92915050565b60606006805480602002602001604051908101604052809291908181526020018280548015612a3f57602002820191906000526020600020905b8160009054906101000a900473ffffffffffffffffffffffffffffffffffffffff1673ffffffffffffffffffffffffffffffffffffffff16815260200190600101908083116129f5575b5050505050905090565b600080612c746003600085815260200190815260200160002060040161010060405190810160405290816000820160009054906101000a900460ff166001811115612a9057fe5b6001811115612a9b57fe5b81526020016000820160019054906101000a900460ff166002811115612abd57fe5b6002811115612ac857fe5b81526020016000820160029054906101000a900460ff161515151581526020016000820160039054906101000a900460ff1615151515815260200160018201805480602002602001604051908101604052809291908181526020018280548015612b5157602002820191906000526020600020905b815481526020019060010190808311612b3d575b505050505081526020016002820160009054906101000a900460ff166005811115612b7857fe5b6005811115612b8357fe5b8152602001600382016040805190810160405290816000820154815260200160018201548152505081526020016005820160408051908101604052908160008201548152602001600182018054600181600116156101000203166002900480601f016020809104026020016040519081016040528092919081815260200182805460018160011615610100020316600290048015612c625780601f10612c3757610100808354040283529160200191612c62565b820191906000526020600020905b815481529060010190602001808311612c4557829003601f168201915b50505050508152505081525050611aa3565b90508015612dfa5760006001811115612c8957fe5b6003600085815260200190815260200160002060040160000160009054906101000a900460ff166001811115612cbb57fe5b1415612d865760001515612cce84610cd4565b15151415612d7b5760008090505b6003600085815260200190815260200160002060040160010180549050811015612d755760006003600086815260200190815260200160002060040160010182815481101515612d2857fe5b9060005260206000200154905060016003600083815260200190815260200160002060040160000160026101000a81548160ff021916908315150217905550508080600101915050612cdc565b50612d85565b6000915050612e00565b5b60016003600085815260200190815260200160002060040160000160026101000a81548160ff02191690831515021790555060016003600085815260200190815260200160002060000160146101000a81548160ff021916908315150217905550612df083612f1b565b6001915050612e00565b60009150505b919050565b60036000828152602001908152602001600020600b01600101543073ffffffffffffffffffffffffffffffffffffffff1631111515612e79576040517f08c379a0000000000000000000000000000000000000000000000000000000008152600401612e70906140e4565b60405180910390fd5b600060036000838152602001908152602001600020600b0160020160009054906101000a900473ffffffffffffffffffffffffffffffffffffffff1690508073ffffffffffffffffffffffffffffffffffffffff166108fc60036000858152602001908152602001600020600b01600101549081150290604051600060405180830381858888f19350505050158015612f16573d6000803e3d6000fd5b505050565b807f0506e70354064bc35d34360f3e6cc91274799235319fdd9aaef4c8157818098e60405160405180910390a260036000828152602001908152602001600020600b0160000160009054906101000a900460ff161561300b5760036000828152602001908152602001600020600b0160020160009054906101000a900473ffffffffffffffffffffffffffffffffffffffff1673ffffffffffffffffffffffffffffffffffffffff1660036000838152602001908152602001600020600b01600101547ff0102b46640b5917994a9b667d33dadc742803ec96e35dde33e0b40a9973b20660405160405180910390a35b50565b828054600181600116156101000203166002900490600052602060002090601f016020900481019282601f1061304f57805160ff191683800117855561307d565b8280016001018555821561307d579182015b8281111561307c578251825591602001919060010190613061565b5b50905061308a919061318f565b5090565b604080519081016040528060008152602001600081525090565b604080519081016040528060008152602001606081525090565b8280548282559060005260206000209081019282156130fe579160200282015b828111156130fd5782518255916020019190600101906130e2565b5b50905061310b919061318f565b5090565b828054600181600116156101000203166002900490600052602060002090601f016020900481019282601f1061315057805160ff191683800117855561317e565b8280016001018555821561317e579182015b8281111561317d578251825591602001919060010190613162565b5b50905061318b919061318f565b5090565b6131b191905b808211156131ad576000816000905550600101613195565b5090565b90565b60006131c082356143ab565b905092915050565b60006131d482356143bd565b905092915050565b600082601f83011215156131ef57600080fd5b81356132026131fd82614203565b6141d6565b9150818183526020840193506020810190508385602084028201111561322757600080fd5b60005b83811015613257578161323d8882613661565b84526020840193506020830192505060018101905061322a565b5050505092915050565b600082601f830112151561327457600080fd5b81356132876132828261422b565b6141d6565b915081818352602084019350602081019050838560208402820111156132ac57600080fd5b60005b838110156132dc57816132c28882613661565b8452602084019350602083019250506001810190506132af565b5050505092915050565b60006132f282356143cf565b905092915050565b600061330682516143cf565b905092915050565b600061331a82356143db565b905092915050565b600061332e82356143f4565b905092915050565b6000613342823561440d565b905092915050565b60006133568235614426565b905092915050565b600082601f830112151561337157600080fd5b813561338461337f82614253565b6141d6565b915080825260208301602083018583830111156133a057600080fd5b6133ab838284614491565b50505092915050565b600082601f83011215156133c757600080fd5b81356133da6133d58261427f565b6141d6565b915080825260208301602083018583830111156133f657600080fd5b613401838284614491565b50505092915050565b6000610120828403121561341d57600080fd5b6134286101006141d6565b9050600061343884828501613322565b600083015250602061344c8482850161330e565b6020830152506040613460848285016132e6565b6040830152506060613474848285016132e6565b606083015250608082013567ffffffffffffffff81111561349457600080fd5b6134a0848285016131dc565b60808301525060a06134b484828501613336565b60a08301525060c06134c884828501613501565b60c08301525061010082013567ffffffffffffffff8111156134e957600080fd5b6134f584828501613599565b60e08301525092915050565b60006040828403121561351357600080fd5b61351d60406141d6565b9050600061352d84828501613661565b600083015250602061354184828501613661565b60208301525092915050565b60006040828403121561355f57600080fd5b61356960406141d6565b9050600061357984828501613661565b600083015250602061358d84828501613661565b60208301525092915050565b6000604082840312156135ab57600080fd5b6135b560406141d6565b905060006135c584828501613661565b600083015250602082013567ffffffffffffffff8111156135e557600080fd5b6135f18482850161335e565b60208301525092915050565b60006040828403121561360f57600080fd5b61361960406141d6565b9050600061362984828501613661565b600083015250602082013567ffffffffffffffff81111561364957600080fd5b6136558482850161335e565b60208301525092915050565b600061366d823561443f565b905092915050565b60006020828403121561368757600080fd5b6000613695848285016131b4565b91505092915050565b600080604083850312156136b157600080fd5b60006136bf858286016131b4565b925050602083013567ffffffffffffffff8111156136dc57600080fd5b6136e8858286016133b4565b9150509250929050565b60006020828403121561370457600080fd5b6000613712848285016132fa565b91505092915050565b60006020828403121561372d57600080fd5b600082013567ffffffffffffffff81111561374757600080fd5b613753848285016133b4565b91505092915050565b6000806000806080858703121561377257600080fd5b600085013567ffffffffffffffff81111561378c57600080fd5b613798878288016133b4565b94505060206137a9878288016131b4565b93505060406137ba8782880161334a565b925050606085013567ffffffffffffffff8111156137d757600080fd5b6137e387828801613261565b91505092959194509250565b6000806040838503121561380257600080fd5b600083013567ffffffffffffffff81111561381c57600080fd5b613828858286016133b4565b925050602083013567ffffffffffffffff81111561384557600080fd5b613851858286016133b4565b9150509250929050565b60006020828403121561386d57600080fd5b600082013567ffffffffffffffff81111561388757600080fd5b6138938482850161340a565b91505092915050565b6000602082840312156138ae57600080fd5b60006138bc84828501613661565b91505092915050565b60008060008060008060e087890312156138de57600080fd5b60006138ec89828a01613661565b96505060206138fd89828a01613322565b955050604061390e89828a0161330e565b945050606061391f89828a01613336565b935050608061393089828a0161354d565b92505060c087013567ffffffffffffffff81111561394d57600080fd5b61395989828a01613261565b9150509295509295509295565b60008060008060008060c0878903121561397f57600080fd5b600061398d89828a01613661565b965050602061399e89828a01613322565b95505060406139af89828a0161330e565b94505060606139c089828a01613336565b935050608087013567ffffffffffffffff8111156139dd57600080fd5b6139e989828a016135fd565b92505060a087013567ffffffffffffffff811115613a0657600080fd5b613a1289828a01613261565b9150509295509295509295565b60008060408385031215613a3257600080fd5b6000613a4085828601613661565b925050602083013567ffffffffffffffff811115613a5d57600080fd5b613a69858286016133b4565b9150509250929050565b60008060408385031215613a8657600080fd5b6000613a9485828601613661565b9250506020613aa585828601613661565b9150509250929050565b600080600060608486031215613ac457600080fd5b6000613ad286828701613661565b9350506020613ae386828701613661565b9250506040613af4868287016131c8565b9150509250925092565b613b078161430b565b82525050565b613b168161430b565b82525050565b6000613b27826142c5565b808452602084019350613b39836142ab565b60005b82811015613b6b57613b4f868351613afe565b613b58826142f1565b9150602086019550600181019050613b3c565b50849250505092915050565b6000613b82826142d0565b808452602084019350613b94836142b8565b60005b82811015613bc657613baa868351613e83565b613bb3826142fe565b9150602086019550600181019050613b97565b50849250505092915050565b613bdb8161431d565b82525050565b613bea81614449565b82525050565b613bf98161445b565b82525050565b613c088161446d565b82525050565b613c178161446d565b82525050565b613c268161447f565b82525050565b6000613c37826142e6565b808452613c4b8160208601602086016144a0565b613c54816144d3565b602085010191505092915050565b6000613c6d826142e6565b808452613c818160208601602086016144a0565b613c8a816144d3565b602085010191505092915050565b6000613ca3826142db565b808452613cb78160208601602086016144a0565b613cc0816144d3565b602085010191505092915050565b6000613cd9826142db565b808452613ced8160208601602086016144a0565b613cf6816144d3565b602085010191505092915050565b6000601d82527f436f6e747261637420686173206e6f7420656e6f7567682066756e64730000006020830152604082019050919050565b6000601682527f436f6c6c61626f7261746f72206e6f74206164646564000000000000000000006020830152604082019050919050565b6000601682527f4e6f7420746865207269676874207265736f75726365000000000000000000006020830152604082019050919050565b6000601482527f7461736b20686173206e6f206465636973696f6e0000000000000000000000006020830152604082019050919050565b6000601a82527f436f6c6c61626f7261746f7220616c72656164792061646465640000000000006020830152604082019050919050565b604082016000820151613e2d6000850182613e83565b506020820151613e406020850182613e83565b50505050565b6000604083016000830151613e5e6000860182613e83565b5060208301518482036020860152613e768282613c98565b9150508091505092915050565b613e8c816143a1565b82525050565b613e9b816143a1565b82525050565b613eaa816143a1565b82525050565b6000602082019050613ec56000830184613b0d565b92915050565b60006020820190508181036000830152613ee58184613b1c565b905092915050565b60006020820190508181036000830152613f078184613b77565b905092915050565b6000602082019050613f246000830184613bd2565b92915050565b600060a082019050613f3f6000830188613bd2565b8181036020830152613f518187613c2c565b9050613f606040830186613b0d565b613f6d6060830185613c1d565b8181036080830152613f7f8184613b77565b90509695505050505050565b6000602082019050613fa06000830184613be1565b92915050565b600060e082019050613fbb6000830189613bf0565b613fc86020830188613be1565b613fd56040830187613bd2565b8181036060830152613fe78186613b77565b9050613ff66080830185613bff565b61400360a0830184613e17565b979650505050505050565b600060c0820190506140236000830189613bf0565b6140306020830188613be1565b61403d6040830187613bd2565b818103606083015261404f8186613b77565b905061405e6080830185613bff565b81810360a08301526140708184613e46565b9050979650505050505050565b600060208201905081810360008301526140978184613c2c565b905092915050565b600060608201905081810360008301526140b98186613c62565b90506140c86020830185613c0e565b81810360408301526140da8184613cce565b9050949350505050565b600060208201905081810360008301526140fd81613d04565b9050919050565b6000602082019050818103600083015261411d81613d3b565b9050919050565b6000602082019050818103600083015261413d81613d72565b9050919050565b6000602082019050818103600083015261415d81613da9565b9050919050565b6000602082019050818103600083015261417d81613de0565b9050919050565b60006020820190506141996000830184613e92565b92915050565b60006060820190506141b46000830186613ea1565b6141c16020830185613c0e565b6141ce6040830184613ea1565b949350505050565b6000604051905081810181811067ffffffffffffffff821117156141f957600080fd5b8060405250919050565b600067ffffffffffffffff82111561421a57600080fd5b602082029050602081019050919050565b600067ffffffffffffffff82111561424257600080fd5b602082029050602081019050919050565b600067ffffffffffffffff82111561426a57600080fd5b601f19601f8301169050602081019050919050565b600067ffffffffffffffff82111561429657600080fd5b601f19601f8301169050602081019050919050565b6000602082019050919050565b6000602082019050919050565b600081519050919050565b600081519050919050565b600081519050919050565b600081519050919050565b6000602082019050919050565b6000602082019050919050565b600061431682614381565b9050919050565b60008115159050919050565b600060038210151561433757fe5b819050919050565b600060028210151561434d57fe5b819050919050565b600060068210151561436357fe5b819050919050565b600060048210151561437957fe5b819050919050565b600073ffffffffffffffffffffffffffffffffffffffff82169050919050565b6000819050919050565b60006143b682614381565b9050919050565b60006143c882614381565b9050919050565b60008115159050919050565b60006003821015156143ec57600080fd5b819050919050565b600060028210151561440557600080fd5b819050919050565b600060068210151561441e57600080fd5b819050919050565b600060048210151561443757600080fd5b819050919050565b6000819050919050565b600061445482614329565b9050919050565b60006144668261433f565b9050919050565b600061447882614355565b9050919050565b600061448a8261436b565b9050919050565b82818337600083830152505050565b60005b838110156144be5780820151818401526020810190506144a3565b838111156144cd576000848401525b50505050565b6000601f19601f830116905091905056fea265627a7a723058205ab56d6b38894156ee829ee55cb54acf8290a65b654958e671e321a80ea46d2c6c6578706572696d656e74616cf50037",
  "source": "pragma solidity ^0.5.3;\n//pragma solidity >0.4.99 <0.6.0;\npragma experimental ABIEncoderV2;\n\ncontract ContractCollaborationManager {\n\n    address public supervisor;\n    uint public taskcount;\n    uint public collabcount;\n    \n    enum Tasktype {TASK, AND, OR, XOR}\n    enum DecisionType{STRINGDESC,INTDESC,TIMEDESC}\n    enum Operator{LESS,GREATER,EQUAL,NEQ,LEQ,GEQ}\n    enum GatewayType{DBEXCL,DBINCL}\n    \n    event AddedTaskEvent(\n        uint indexed taskid\n    );\n    \n    event LastTaskCompleted(\n        uint indexed taskid\n    );\n    \n    event ActionEvent(\n        uint indexed value,\n        address indexed reciever\n    );\n\n    struct Action {\n        bool exists;\n        uint value;\n        address payable receiver;\n    }\n\n    struct Collaborator {\n        string organisation;\n        bool exists;\n    }\n\n    struct Decision{\n        GatewayType gatewaytype;\n        DecisionType typ;\n        bool completed;\n        bool exists;\n        uint[] competitors;\n        Operator operator;\n        IntegerOperants integeroperants;\n        StringOperants stringoperants;\n    }\n\n    struct IntegerOperants{\n        uint idtoglobalintegerpayload;\n        uint local;\n    }\n\n    struct StringOperants{\n        uint idtoglobalstringpayload;\n        string local;\n    }\n\n    struct Task {\n        address taskresource;\n        bool completed;\n        string activity;\n        Tasktype tasktype;\n        uint[] requirements;\n        Decision decision;\n        Action action;\n    }\n\n    mapping(uint => Task) tasks;\n    uint[] public tasksArray;\n\n    mapping(address => Collaborator) collaborators;\n    address[] public collaboratorAddressArray;\n\n    string[] globalStringPayload;\n    uint[] globalIntegerPayload;\n\n    /*\n    * Initialise the contract with 0 tasks and saves the creator as owner\n    */\n    constructor() public payable{\n        taskcount = 0;\n        supervisor = msg.sender;\n    }\n    \n    /*\n    * Returns the Balance of the CCM Contract not the library\n    */\n    function getContractBalance () public view returns(uint){\n        return address(this).balance;\n    }\n    \n    /*\n    * Makes it possible that you deposit Ether in a contract\n    */\n\n    /*\n    * Fallback Function to reciever Ether\n    */\n    function () external payable{\n    }\n    \n    /*\n    * creates a new gobal Integer payload and returns the id;\n    */\n    function createGlobalIntPayload(uint _gint) public returns (uint){\n        globalIntegerPayload.push(_gint);\n        return(globalIntegerPayload.length - 1);\n    }\n\n    /*\n    * Get the value of an globalintegerpayload by the id\n    */\n    function getGlobalIntPayloadValueById(uint _gintid) public view returns (uint) {\n        return globalIntegerPayload[_gintid];\n    }\n\n    /*\n    * Get the value of an globalstringpayload by the id\n    */\n    function getGlobalStringPayloadValueById(uint _gstrid) public view returns (string memory) {\n        return globalStringPayload[_gstrid];\n    }\n\n\n    /*\n    * creates a new gobal string payload and returns the id;\n    */\n    function createGlobalStringPayload(string memory _gstring) public returns (uint){\n        //require(msg.sender == supervisor);\n        globalStringPayload.push(_gstring);\n        return(globalStringPayload.length - 1);\n    }\n\n    //TODO Eval ob exists sinn macht\n    //TODO Nur Collab drfen ndern!!\n    function changeGlobalIntPayload(uint _id,uint _value) public returns (bool){\n        //require(msg.sender == supervisor);\n        globalIntegerPayload[_id] = _value;\n        return true;\n    }\n\n    function changeGlobalStringPayload(uint _id, string memory _value) public returns (bool){\n        //require(msg.sender == supervisor);\n        globalStringPayload[_id] = _value;\n        return true;\n    }\n\n    function getGlobalIntegerPayloadCount() public view returns (uint payloadCount){\n        return globalIntegerPayload.length;\n    }\n\n    function getGlobalStringPayloadCount() public view returns (uint payloadCount){\n        return globalStringPayload.length;\n    }\n\n    /*\n    * @param: Address of the Collaborator and his Organisation\n    */\n    function addCollaborator(address _collaborator, string memory _organisation) public {\n        //Only ContractOwner can add collaborators\n        //require(msg.sender == supervisor, \"Only the contract owner can add new collaborators\");\n        require(checkForAllowedCollaborator(_collaborator) == false,\"Collaborator already added\");\n        Collaborator storage collaborator = collaborators[_collaborator];\n        collaborator.organisation = _organisation;\n        collaborator.exists = true;\n        collaboratorAddressArray.push(_collaborator) - 1;\n    }\n\n    function checkForAllowedCollaborator(address _toaddcollaborator) public view returns(bool){\n        return collaborators[_toaddcollaborator].exists;\n    }\n\n    /*\n    * @Param: Creates a Task\n    *\n    */\n    function createTask(string memory _activity,\n                        address _taskresource,\n                        Tasktype _tasktype,\n                         uint[] memory _requirements) public {\n        //require(msg.sender == supervisor, \"Not Supervisor\");\n        require(checkForAllowedCollaborator(_taskresource) == true,\"Collaborator not added\");\n        Task storage task = tasks[taskcount];\n        task.taskresource = _taskresource;\n        task.completed = false;\n        task.activity = _activity;\n        task.tasktype = _tasktype;\n        task.requirements = _requirements;\n        tasksArray.push(taskcount);\n        taskcount++;\n        emit AddedTaskEvent(taskcount-1);\n    }\n\n    function testIfDecisionExists(uint _id) public view returns (bool){\n        if(tasks[_id].decision.exists == true){\n            return true;\n        }\n        else return false;\n\n    }\n\n    function getDecisionType(uint _id) public view returns (DecisionType decisionType){\n        return tasks[_id].decision.typ;\n    }\n\n    function getStringDecision(uint _id) public view returns(GatewayType gatewaytype,\n        DecisionType decisionType, bool completed, uint [] memory competitors, Operator operator,\n        StringOperants memory stringoperants){\n        require(testIfDecisionExists(_id),\"task has no decision\");\n        return (tasks[_id].decision.gatewaytype, tasks[_id].decision.typ, tasks[_id].decision.completed,\n        tasks[_id].decision.competitors, tasks[_id].decision.operator, tasks[_id].decision.stringoperants);           \n    }\n\n    function getIntegerDecision(uint _id) public view returns(GatewayType gatewaytype,\n        DecisionType decisionType, bool completed, uint [] memory competitors, Operator operator,\n        IntegerOperants memory integeroperants){\n        require(testIfDecisionExists(_id),\"task has no decision\");\n        return (tasks[_id].decision.gatewaytype, tasks[_id].decision.typ, tasks[_id].decision.completed,\n        tasks[_id].decision.competitors, tasks[_id].decision.operator, tasks[_id].decision.integeroperants);               \n    }\n\n\n    function testIfActionExists(uint _id) public view returns (bool){\n        if(tasks[_id].action.exists == true){\n            return true;\n        }\n        else return false;\n    }\n\n    function addIntDecisionToTaskId(uint _id,\n                                     GatewayType _gatewaytype,\n                                     DecisionType _type,\n                                     Operator _op,\n                                      IntegerOperants memory _intoperants,\n                                      uint[] memory _competitors) public returns (bool) {\n        //require(supervisor == msg.sender, \"Your not allowed\");\n        if(testIfDecisionExists(_id) || testIfActionExists(_id)){\n            return false;\n        }\n        else{\n            tasks[_id].decision.gatewaytype = _gatewaytype;\n            tasks[_id].decision.typ = _type;\n            tasks[_id].decision.operator = _op;\n            tasks[_id].decision.integeroperants = _intoperants;\n            tasks[_id].decision.competitors = _competitors;\n            tasks[_id].decision.exists = true;\n            return true;\n        }\n    }\n\n   function addStringDecisionToTaskId(uint _id,\n                                        GatewayType _gatewaytype,\n                                        DecisionType _type,\n                                        Operator _op,\n                                        StringOperants memory _stroperants,\n                                        uint[] memory _competitors) public returns (bool){\n        //require(supervisor == msg.sender, \"Your not allowed\");\n        if(testIfDecisionExists(_id) || testIfActionExists(_id)){\n            return false;\n        } \n        else{\n            tasks[_id].decision.gatewaytype = _gatewaytype;\n            tasks[_id].decision.typ = _type;\n            tasks[_id].decision.operator = _op;\n            tasks[_id].decision.stringoperants = _stroperants;\n            tasks[_id].decision.competitors = _competitors;\n            tasks[_id].decision.exists = true;\n            return true;\n        }\n    }\n\n    function addActionToTaskId(uint _id, uint _value, address payable _receiver) public returns (bool){\n       \n        //require(supervisor == msg.sender, \"Your not allowed\");\n        if(testIfDecisionExists(_id) || testIfActionExists(_id)){\n            return false;\n        }\n        else{\n            tasks[_id].action.value = _value;\n            tasks[_id].action.exists = true;\n            tasks[_id].action.receiver = _receiver;\n            return true;\n        }\n    }\n\n    function getTasks()  public view returns (uint[] memory){\n        return tasksArray;\n    }\n\n    function getCollaborators()  public view returns (address[] memory){\n        return collaboratorAddressArray;\n    }\n\n    //Pay attetnion that only one string stays in memory in case of memory size.\n    function stringEquals(string memory _firststring, string memory _secondstring) public pure returns (bool){\n        if (keccak256(abi.encodePacked(_firststring)) != keccak256(abi.encodePacked(_secondstring))) {\n            return false;\n        }\n        else {\n            bytes memory a = bytes(_firststring);\n            bytes memory b = bytes(_secondstring);\n            if (a.length != b.length) {\n                return false;\n            }\n            for (uint i = 0; i < a.length; i ++) {\n                if (a[i] != b[i]) {\n                    return false;\n                }\n            }\n            return true;\n        }\n    }\n    /*\n    * Internal function for Action Events to transfer Funds.\n    */\n\n    function transferFunds(uint _id) private {\n        require(address(this).balance > tasks[_id].action.value, \"Contract has not enough funds\");\n        address payable _to = tasks[_id].action.receiver;\n        _to.transfer(tasks[_id].action.value);\n    }\n\n    /*\n    * @Para: Evalutes the list of a competitors of a DB Exclusion Task\n    */\n    function isDecisionClosed(uint _id) public view returns (bool) {\n        if(tasks[_id].decision.completed){\n            return true;\n        }\n        for(uint i = 0; i < tasks[_id].decision.competitors.length; i++){\n            uint comp_id = tasks[_id].decision.competitors[i];\n            if(tasks[comp_id].decision.completed == true){\n                return true;\n            }\n        }\n        return false;\n    }\n\n    function emitTaskCompletedEvents(uint _id) private{\n        emit LastTaskCompleted(_id);\n        if(tasks[_id].action.exists){\n            emit ActionEvent(tasks[_id].action.value, tasks[_id].action.receiver);\n        }\n    }\n\n    /*\n    * @Param: sets a Task on completed if resource equal to taskresource\n    */\n    function setTaskOnCompleted(uint _id) public returns (bool success){\n        uint tempcount;\n        require(tasks[_id].taskresource == msg.sender, \"Not the right resource\");\n\n        // if task is already completed return true\n        if (tasks[_id].completed == true) {\n            return true;\n        }\n        uint[] memory temprequire = tasks[_id].requirements;\n        if (temprequire.length == 0) {\n                if(testIfDecisionExists(_id)){\n                    return setDecisionTaskOnCompleted(_id);\n                }\n                if(testIfActionExists(_id)){\n                    transferFunds(_id);\n                    emit ActionEvent(tasks[_id].action.value,tasks[_id].action.receiver);\n                    return true;\n                }                \n                else{\n                    tasks[_id].completed = true;\n                    emitTaskCompletedEvents(_id);\n                    return true;\n                }\n        }\n        //TASK\n        if (tasks[_id].tasktype == Tasktype.TASK) {\n            if (isTaskCompletedById(temprequire[0]) == true) {\n                \n                if(testIfDecisionExists(_id)){\n                    return setDecisionTaskOnCompleted(_id);\n                }\n                if(testIfActionExists(_id)){\n                    transferFunds(_id);\n                    emit ActionEvent(tasks[_id].action.value,tasks[_id].action.receiver);\n                    return true;\n                }                \n                else{\n                    tasks[_id].completed = true;\n                    emitTaskCompletedEvents(_id);\n                    return true;\n                }\n            }\n            else {\n                return false;\n            }\n        }\n\n        // ---------- GATES ----------\n        // AND\n        if (tasks[_id].tasktype == Tasktype.AND) {\n            for (uint i = 0; i < temprequire.length; i++) {\n                if (isTaskCompletedById(temprequire[i]) == true) {\n                    tempcount++;\n                }\n            }\n            if (tempcount == temprequire.length) {\n                tasks[_id].completed = true;\n                emit LastTaskCompleted(_id);\n                return true;\n            }\n            else {\n                return false;\n\n            }\n        }\n        // atleast 1\n        if (tasks[_id].tasktype == Tasktype.OR) {\n            for (uint j = 0; j < temprequire.length; j++) {\n                if (isTaskCompletedById(temprequire[j]) == true) {\n                    tempcount++;\n                }\n            }\n            if (tempcount > 0) {\n                tasks[_id].completed = true;\n                emit LastTaskCompleted(_id);\n                return true;\n            }\n            else {\n                return false;\n            }\n        }\n        // exactly 1\n        if (tasks[_id].tasktype == Tasktype.XOR) {\n            for (uint k = 0; k < temprequire.length; k++) {\n                if (isTaskCompletedById(temprequire[k]) == true) {\n                    tempcount++;\n                }\n            }\n            if (tempcount == 1) {\n                tasks[_id].completed = true;\n                emit LastTaskCompleted(_id);\n                return true;\n            }\n            else {\n                return false;\n            }\n        }\n    }\n\n    function setDecisionTaskOnCompleted(uint _id) private returns (bool success){\n        //DECISION START        \n        bool result = evaluateDecision(tasks[_id].decision);       \n            if(result){\n                if(tasks[_id].decision.gatewaytype == GatewayType.DBEXCL){\n                     if(isDecisionClosed(_id) == false){\n                        for(uint i = 0; i < tasks[_id].decision.competitors.length; i++){\n                            uint comp_id = tasks[_id].decision.competitors[i];\n                            tasks[comp_id].decision.completed = true;\n                        }                        \n                     }else{\n                        return false;\n                     }\n                }\n                tasks[_id].decision.completed = true;\n                tasks[_id].completed = true;                            \n                emitTaskCompletedEvents(_id);\n                return true;\n            }\n            return false;                \n    }\n    /*\n    * @param: ID of a Task\n    * @returns: bool value if task is completed\n    */\n    function isTaskCompletedById(uint _id) public view returns (bool success){\n        if (tasks[_id].completed == true) {\n            return true;\n        }\n        else return false;\n    }\n\n    /*\n    * @param: Id of a State\n    * @returns: status and description of the Task\n    */\n    function getTaskById(uint _id) public view returns (bool status,\n        string memory description, address resource, Tasktype tasktype,\n        uint[] memory requirements){\n        return (tasks[_id].completed, tasks[_id].activity, tasks[_id].taskresource, tasks[_id].tasktype, tasks[_id].requirements);\n    }\n\n    /*\n    * @param: Id\n    * @returns: status of a task\n    */\n    function getTaskStatusById(uint _id) public view returns (bool){\n        return (tasks[_id].completed);\n    }\n\n    /*\n    * @param: Id\n    * @returns: description of a task\n    */\n    function getTaskActivityById(uint _id) public view returns (string memory){\n        return (tasks[_id].activity);\n    }\n\n    /*\n    * @param: Id\n    * @returns: description of a task\n    */\n    function getTaskRequirementsById(uint _id) public view returns (uint[] memory) {\n        return (tasks[_id].requirements);\n    }\n\n\n    function getCollaboratorCount() public view returns (uint){\n        return collaboratorAddressArray.length;\n    }\n\n    /*\n    * @Returnsd: Amout of States in the Collaboration\n    */\n    function getTaskCount() public view returns (uint){\n        return taskcount;\n    }\n\n    //USING EXPERIMENTALENCODER V2 for struct as args\n    function evaluateDecision(Decision memory _decision) public view returns (bool){\n        if(_decision.typ == DecisionType.STRINGDESC){\n            string memory stringpayload = globalStringPayload[_decision.stringoperants.idtoglobalstringpayload];\n            return DecisionLibrary.evaluate(stringpayload,_decision.operator, _decision.stringoperants.local);\n        }\n        else if(_decision.typ == DecisionType.INTDESC){\n            uint intpayload = globalIntegerPayload[_decision.integeroperants.idtoglobalintegerpayload];\n            return DecisionLibrary.evaluate(intpayload, _decision.operator, _decision.integeroperants.local);\n        }\n    }\n}\n\n\nlibrary DecisionLibrary{\n\n    function evaluate(string memory _firststring,ContractCollaborationManager.Operator _op,string memory _secondstring) public pure returns (bool){\n        if(_op == ContractCollaborationManager.Operator.EQUAL){\n            // Required way to string compare\n            if(keccak256(abi.encodePacked(_firststring)) == keccak256(abi.encodePacked(_secondstring))){\n                return true;\n            }\n            else return false;\n        }\n        else if(_op != ContractCollaborationManager.Operator.NEQ){\n            if(keccak256(abi.encodePacked(_firststring)) != keccak256(abi.encodePacked(_secondstring))){\n                return true;\n            }\n            else return false;\n        }\n        else return false;\n    }\n    // Evaluates a decision based on int\n    function evaluate(uint _firstint, ContractCollaborationManager.Operator _op, uint _secondint)\n        public pure returns(bool status){\n        // a < b\n        if(_op == ContractCollaborationManager.Operator.LESS){\n\n            if(_firstint < _secondint){\n                return true;\n            }\n            else return false;\n        }\n\n        // a > b\n        if(_op == ContractCollaborationManager.Operator.GREATER){\n\n            if(_firstint > _secondint){\n                return true;\n            }\n            else return false;\n        }\n\n        // a = b\n        if(_op == ContractCollaborationManager.Operator.EQUAL){\n\n            if(_firstint == _secondint){\n                return true;\n            }\n            else return false;\n        }\n\n        // a <= b\n        if(_op == ContractCollaborationManager.Operator.LEQ){\n            if(_firstint <= _secondint){\n                return true;\n            }\n            else return false;\n        }\n\n        // a >= b\n        if(_op == ContractCollaborationManager.Operator.GEQ){\n\n            if(_firstint >= _secondint){\n                return true;\n            }\n            else return false;\n        }\n        return false;\n    }\n}\n\n",
  "sourcePath": "/home/nicolas/Dokumente/Github/UBTMasterProject2019/contracts/ContractCollaborationManager.sol",
  "compiler": {
    "name": "solc",
    "version": "0.5.3+commit.10d17f24.Emscripten.clang"
  },
  "schemaVersion": "3.0.1",
  "updatedAt": "2019-03-22T13:38:04.265Z",
  "devdoc": {
    "methods": {}
  },
  "userdoc": {
    "methods": {}
  }
}