{
  "contractName": "DecisionLibrary",
  "abi": [
    {
      "constant": true,
      "inputs": [
        {
          "name": "_firststring",
          "type": "string"
        },
        {
          "name": "_op",
          "type": "ContractCollaborationManager.Operator"
        },
        {
          "name": "_secondstring",
          "type": "string"
        }
      ],
      "name": "evaluate",
      "outputs": [
        {
          "name": "",
          "type": "bool"
        }
      ],
      "payable": false,
      "stateMutability": "pure",
      "type": "function",
      "signature": "0x88d6e110"
    },
    {
      "constant": true,
      "inputs": [
        {
          "name": "_firstint",
          "type": "uint256"
        },
        {
          "name": "_op",
          "type": "ContractCollaborationManager.Operator"
        },
        {
          "name": "_secondint",
          "type": "uint256"
        }
      ],
      "name": "evaluate",
      "outputs": [
        {
          "name": "status",
          "type": "bool"
        }
      ],
      "payable": false,
      "stateMutability": "pure",
      "type": "function",
      "signature": "0xf297dad7"
    }
  ],
  "bytecode": "0x610682610030600b82828239805160001a6073146000811461002057610022565bfe5b5030600052607381538281f3fe730000000000000000000000000000000000000000301460806040526004361061005d576000357c01000000000000000000000000000000000000000000000000000000009004806388d6e11014610062578063f297dad714610092575b600080fd5b61007c600480360361007791908101906104b9565b6100c2565b6040516100899190610596565b60405180910390f35b6100ac60048036036100a79190810190610538565b610310565b6040516100b99190610596565b60405180910390f35b6000600260058111156100d157fe5b8360058111156100dd57fe5b14156101e357816040516020018082805190602001908083835b60208310151561011c57805182526020820191506020810190506020830392506100f7565b6001836020036101000a03801982511681845116808217855250505050505090500191505060405160208183030381529060405280519060200120846040516020018082805190602001908083835b602083101515610190578051825260208201915060208101905060208303925061016b565b6001836020036101000a0380198251168184511680821785525050505050509050019150506040516020818303038152906040528051906020012014156101da5760019050610309565b60009050610309565b600360058111156101f057fe5b8360058111156101fc57fe5b14151561030457816040516020018082805190602001908083835b60208310151561023c5780518252602082019150602081019050602083039250610217565b6001836020036101000a03801982511681845116808217855250505050505090500191505060405160208183030381529060405280519060200120846040516020018082805190602001908083835b6020831015156102b0578051825260208201915060208101905060208303925061028b565b6001836020036101000a038019825116818451168082178552505050505050905001915050604051602081830303815290604052805190602001201415156102fb5760019050610309565b60009050610309565b600090505b9392505050565b600080600581111561031e57fe5b83600581111561032a57fe5b141561034a57818410156103415760019050610434565b60009050610434565b6001600581111561035757fe5b83600581111561036357fe5b1415610383578184111561037a5760019050610434565b60009050610434565b6002600581111561039057fe5b83600581111561039c57fe5b14156103bc57818414156103b35760019050610434565b60009050610434565b600460058111156103c957fe5b8360058111156103d557fe5b14156103f65781841115156103ed5760019050610434565b60009050610434565b60058081111561040257fe5b83600581111561040e57fe5b141561042f5781841015156104265760019050610434565b60009050610434565b600090505b9392505050565b60006104478235610616565b905092915050565b600082601f830112151561046257600080fd5b8135610475610470826105de565b6105b1565b9150808252602083016020830185838301111561049157600080fd5b61049c838284610639565b50505092915050565b60006104b1823561062f565b905092915050565b6000806000606084860312156104ce57600080fd5b600084013567ffffffffffffffff8111156104e857600080fd5b6104f48682870161044f565b93505060206105058682870161043b565b925050604084013567ffffffffffffffff81111561052257600080fd5b61052e8682870161044f565b9150509250925092565b60008060006060848603121561054d57600080fd5b600061055b868287016104a5565b935050602061056c8682870161043b565b925050604061057d868287016104a5565b9150509250925092565b6105908161060a565b82525050565b60006020820190506105ab6000830184610587565b92915050565b6000604051905081810181811067ffffffffffffffff821117156105d457600080fd5b8060405250919050565b600067ffffffffffffffff8211156105f557600080fd5b601f19601f8301169050602081019050919050565b60008115159050919050565b600060068210151561062757600080fd5b819050919050565b6000819050919050565b8281833760008383015250505056fea265627a7a7230582069a717030e77652d7a5e43620a8202368644d421104be6936cbf6b39b029b8c56c6578706572696d656e74616cf50037",
  "source": "pragma solidity ^0.5.3;\n//pragma solidity >0.4.99 <0.6.0;\npragma experimental ABIEncoderV2;\n\ncontract ContractCollaborationManager {\n\n    address public supervisor;\n    uint public taskcount;\n    uint public collabcount;\n    \n    enum Tasktype {TASK, AND, OR, XOR}\n    enum DecisionType{STRINGDESC,INTDESC,TIMEDESC}\n    enum Operator{LESS,GREATER,EQUAL,NEQ,LEQ,GEQ}\n    enum GatewayType{DBEXCL,DBINCL}\n    \n    event AddedTaskEvent(\n        uint indexed taskid\n    );\n    \n    event LastTaskCompleted(\n        uint indexed taskid\n    );\n    \n    event ActionEvent(\n        uint indexed value,\n        address indexed reciever\n    );\n\n    struct Action {\n        bool exists;\n        uint value;\n        address payable receiver;\n    }\n\n    struct Collaborator {\n        string organisation;\n        bool exists;\n    }\n\n    struct Decision{\n        GatewayType gatewaytype;\n        DecisionType typ;\n        bool completed;\n        bool exists;\n        uint[] competitors;\n        Operator operator;\n        IntegerOperants integeroperants;\n        StringOperants stringoperants;\n    }\n\n    struct IntegerOperants{\n        uint idtoglobalintegerpayload;\n        uint local;\n    }\n\n    struct StringOperants{\n        uint idtoglobalstringpayload;\n        string local;\n    }\n\n    struct Task {\n        address taskresource;\n        bool completed;\n        string activity;\n        Tasktype tasktype;\n        uint[] requirements;\n        Decision decision;\n        Action action;\n    }\n\n    mapping(uint => Task) tasks;\n    uint[] public tasksArray;\n\n    mapping(address => Collaborator) collaborators;\n    address[] public collaboratorAddressArray;\n\n    string[] globalStringPayload;\n    uint[] globalIntegerPayload;\n\n    /*\n    * Initialise the contract with 0 tasks and saves the creator as owner\n    */\n    constructor() public payable{\n        taskcount = 0;\n        supervisor = msg.sender;\n    }\n    \n    /*\n    * Returns the Balance of the CCM Contract not the library\n    */\n    function getContractBalance () public view returns(uint){\n        return address(this).balance;\n    }\n    \n    /*\n    * Makes it possible that you deposit Ether in a contract\n    */\n\n    /*\n    * Fallback Function to reciever Ether\n    */\n    function () external payable{\n    }\n    \n    /*\n    * creates a new gobal Integer payload and returns the id;\n    */\n    function createGlobalIntPayload(uint _gint) public returns (uint){\n        globalIntegerPayload.push(_gint);\n        return(globalIntegerPayload.length - 1);\n    }\n\n    /*\n    * Get the value of an globalintegerpayload by the id\n    */\n    function getGlobalIntPayloadValueById(uint _gintid) public view returns (uint) {\n        return globalIntegerPayload[_gintid];\n    }\n\n    /*\n    * Get the value of an globalstringpayload by the id\n    */\n    function getGlobalStringPayloadValueById(uint _gstrid) public view returns (string memory) {\n        return globalStringPayload[_gstrid];\n    }\n\n\n    /*\n    * creates a new gobal string payload and returns the id;\n    */\n    function createGlobalStringPayload(string memory _gstring) public returns (uint){\n        //require(msg.sender == supervisor);\n        globalStringPayload.push(_gstring);\n        return(globalStringPayload.length - 1);\n    }\n\n    //TODO Eval ob exists sinn macht\n    //TODO Nur Collab dürfen ändern!!\n    function changeGlobalIntPayload(uint _id,uint _value) public returns (bool){\n        //require(msg.sender == supervisor);\n        globalIntegerPayload[_id] = _value;\n        return true;\n    }\n\n    function changeGlobalStringPayload(uint _id, string memory _value) public returns (bool){\n        //require(msg.sender == supervisor);\n        globalStringPayload[_id] = _value;\n        return true;\n    }\n\n    function getGlobalIntegerPayloadCount() public view returns (uint payloadCount){\n        return globalIntegerPayload.length;\n    }\n\n    function getGlobalStringPayloadCount() public view returns (uint payloadCount){\n        return globalStringPayload.length;\n    }\n\n    /*\n    * @param: Address of the Collaborator and his Organisation\n    */\n    function addCollaborator(address _collaborator, string memory _organisation) public {\n        //Only ContractOwner can add collaborators\n        //require(msg.sender == supervisor, \"Only the contract owner can add new collaborators\");\n        require(checkForAllowedCollaborator(_collaborator) == false,\"Collaborator already added\");\n        Collaborator storage collaborator = collaborators[_collaborator];\n        collaborator.organisation = _organisation;\n        collaborator.exists = true;\n        collaboratorAddressArray.push(_collaborator) - 1;\n    }\n\n    function checkForAllowedCollaborator(address _toaddcollaborator) public view returns(bool){\n        return collaborators[_toaddcollaborator].exists;\n    }\n\n    /*\n    * @Param: Creates a Task\n    *\n    */\n    function createTask(string memory _activity,\n                        address _taskresource,\n                        Tasktype _tasktype,\n                         uint[] memory _requirements) public {\n        //require(msg.sender == supervisor, \"Not Supervisor\");\n        require(checkForAllowedCollaborator(_taskresource) == true,\"Collaborator not added\");\n        Task storage task = tasks[taskcount];\n        task.taskresource = _taskresource;\n        task.completed = false;\n        task.activity = _activity;\n        task.tasktype = _tasktype;\n        task.requirements = _requirements;\n        tasksArray.push(taskcount);\n        taskcount++;\n        emit AddedTaskEvent(taskcount-1);\n    }\n\n    function testIfDecisionExists(uint _id) public view returns (bool){\n        if(tasks[_id].decision.exists == true){\n            return true;\n        }\n        else return false;\n\n    }\n\n    function getDecisionType(uint _id) public view returns (DecisionType decisionType){\n        return tasks[_id].decision.typ;\n    }\n\n    function getStringDecision(uint _id) public view returns(GatewayType gatewaytype,\n        DecisionType decisionType, bool completed, uint [] memory competitors, Operator operator,\n        StringOperants memory stringoperants){\n        require(testIfDecisionExists(_id),\"task has no decision\");\n        return (tasks[_id].decision.gatewaytype, tasks[_id].decision.typ, tasks[_id].decision.completed,\n        tasks[_id].decision.competitors, tasks[_id].decision.operator, tasks[_id].decision.stringoperants);           \n    }\n\n    function getIntegerDecision(uint _id) public view returns(GatewayType gatewaytype,\n        DecisionType decisionType, bool completed, uint [] memory competitors, Operator operator,\n        IntegerOperants memory integeroperants){\n        require(testIfDecisionExists(_id),\"task has no decision\");\n        return (tasks[_id].decision.gatewaytype, tasks[_id].decision.typ, tasks[_id].decision.completed,\n        tasks[_id].decision.competitors, tasks[_id].decision.operator, tasks[_id].decision.integeroperants);               \n    }\n\n\n    function testIfActionExists(uint _id) public view returns (bool){\n        if(tasks[_id].action.exists == true){\n            return true;\n        }\n        else return false;\n    }\n\n    function addIntDecisionToTaskId(uint _id,\n                                     GatewayType _gatewaytype,\n                                     DecisionType _type,\n                                     Operator _op,\n                                      IntegerOperants memory _intoperants,\n                                      uint[] memory _competitors) public returns (bool) {\n        //require(supervisor == msg.sender, \"Your not allowed\");\n        if(testIfDecisionExists(_id) || testIfActionExists(_id)){\n            return false;\n        }\n        else{\n            tasks[_id].decision.gatewaytype = _gatewaytype;\n            tasks[_id].decision.typ = _type;\n            tasks[_id].decision.operator = _op;\n            tasks[_id].decision.integeroperants = _intoperants;\n            tasks[_id].decision.competitors = _competitors;\n            tasks[_id].decision.exists = true;\n            return true;\n        }\n    }\n\n   function addStringDecisionToTaskId(uint _id,\n                                        GatewayType _gatewaytype,\n                                        DecisionType _type,\n                                        Operator _op,\n                                        StringOperants memory _stroperants,\n                                        uint[] memory _competitors) public returns (bool){\n        //require(supervisor == msg.sender, \"Your not allowed\");\n        if(testIfDecisionExists(_id) || testIfActionExists(_id)){\n            return false;\n        } \n        else{\n            tasks[_id].decision.gatewaytype = _gatewaytype;\n            tasks[_id].decision.typ = _type;\n            tasks[_id].decision.operator = _op;\n            tasks[_id].decision.stringoperants = _stroperants;\n            tasks[_id].decision.competitors = _competitors;\n            tasks[_id].decision.exists = true;\n            return true;\n        }\n    }\n\n    function addActionToTaskId(uint _id, uint _value, address payable _receiver) public returns (bool){\n       \n        //require(supervisor == msg.sender, \"Your not allowed\");\n        if(testIfDecisionExists(_id) || testIfActionExists(_id)){\n            return false;\n        }\n        else{\n            tasks[_id].action.value = _value;\n            tasks[_id].action.exists = true;\n            tasks[_id].action.receiver = _receiver;\n            return true;\n        }\n    }\n\n    function getTasks()  public view returns (uint[] memory){\n        return tasksArray;\n    }\n\n    function getCollaborators()  public view returns (address[] memory){\n        return collaboratorAddressArray;\n    }\n\n    //Pay attetnion that only one string stays in memory in case of memory size.\n    function stringEquals(string memory _firststring, string memory _secondstring) public pure returns (bool){\n        if (keccak256(abi.encodePacked(_firststring)) != keccak256(abi.encodePacked(_secondstring))) {\n            return false;\n        }\n        else {\n            bytes memory a = bytes(_firststring);\n            bytes memory b = bytes(_secondstring);\n            if (a.length != b.length) {\n                return false;\n            }\n            for (uint i = 0; i < a.length; i ++) {\n                if (a[i] != b[i]) {\n                    return false;\n                }\n            }\n            return true;\n        }\n    }\n    /*\n    * Internal function for Action Events to transfer Funds.\n    */\n\n    function transferFunds(uint _id) private {\n        require(address(this).balance > tasks[_id].action.value, \"Contract has not enough funds\");\n        address payable _to = tasks[_id].action.receiver;\n        _to.transfer(tasks[_id].action.value);\n    }\n\n    /*\n    * @Para: Evalutes the list of a competitors of a DB Exclusion Task\n    */\n    function isDecisionClosed(uint _id) public view returns (bool) {\n        if(tasks[_id].decision.completed){\n            return true;\n        }\n        for(uint i = 0; i < tasks[_id].decision.competitors.length; i++){\n            uint comp_id = tasks[_id].decision.competitors[i];\n            if(tasks[comp_id].decision.completed == true){\n                return true;\n            }\n        }\n        return false;\n    }\n\n    function emitTaskCompletedEvents(uint _id) private{\n        emit LastTaskCompleted(_id);\n        if(tasks[_id].action.exists){\n            emit ActionEvent(tasks[_id].action.value, tasks[_id].action.receiver);\n        }\n    }\n\n    /*\n    * @Param: sets a Task on completed if resource equal to taskresource\n    */\n    function setTaskOnCompleted(uint _id) public returns (bool success){\n        uint tempcount;\n        require(tasks[_id].taskresource == msg.sender, \"Not the right resource\");\n\n        // if task is already completed return true\n        if (tasks[_id].completed == true) {\n            return true;\n        }\n        uint[] memory temprequire = tasks[_id].requirements;\n        if (temprequire.length == 0) {\n                if(testIfDecisionExists(_id)){\n                    return setDecisionTaskOnCompleted(_id);\n                }\n                if(testIfActionExists(_id)){\n                    transferFunds(_id);\n                    emit ActionEvent(tasks[_id].action.value,tasks[_id].action.receiver);\n                    return true;\n                }                \n                else{\n                    tasks[_id].completed = true;\n                    emitTaskCompletedEvents(_id);\n                    return true;\n                }\n        }\n        //TASK\n        if (tasks[_id].tasktype == Tasktype.TASK) {\n            if (isTaskCompletedById(temprequire[0]) == true) {\n                \n                if(testIfDecisionExists(_id)){\n                    return setDecisionTaskOnCompleted(_id);\n                }\n                if(testIfActionExists(_id)){\n                    transferFunds(_id);\n                    emit ActionEvent(tasks[_id].action.value,tasks[_id].action.receiver);\n                    return true;\n                }                \n                else{\n                    tasks[_id].completed = true;\n                    emitTaskCompletedEvents(_id);\n                    return true;\n                }\n            }\n            else {\n                return false;\n            }\n        }\n\n        // ---------- GATES ----------\n        // AND\n        if (tasks[_id].tasktype == Tasktype.AND) {\n            for (uint i = 0; i < temprequire.length; i++) {\n                if (isTaskCompletedById(temprequire[i]) == true) {\n                    tempcount++;\n                }\n            }\n            if (tempcount == temprequire.length) {\n                tasks[_id].completed = true;\n                emit LastTaskCompleted(_id);\n                return true;\n            }\n            else {\n                return false;\n\n            }\n        }\n        // atleast 1\n        if (tasks[_id].tasktype == Tasktype.OR) {\n            for (uint j = 0; j < temprequire.length; j++) {\n                if (isTaskCompletedById(temprequire[j]) == true) {\n                    tempcount++;\n                }\n            }\n            if (tempcount > 0) {\n                tasks[_id].completed = true;\n                emit LastTaskCompleted(_id);\n                return true;\n            }\n            else {\n                return false;\n            }\n        }\n        // exactly 1\n        if (tasks[_id].tasktype == Tasktype.XOR) {\n            for (uint k = 0; k < temprequire.length; k++) {\n                if (isTaskCompletedById(temprequire[k]) == true) {\n                    tempcount++;\n                }\n            }\n            if (tempcount == 1) {\n                tasks[_id].completed = true;\n                emit LastTaskCompleted(_id);\n                return true;\n            }\n            else {\n                return false;\n            }\n        }\n    }\n\n    function setDecisionTaskOnCompleted(uint _id) private returns (bool success){\n        //DECISION START        \n        bool result = evaluateDecision(tasks[_id].decision);       \n            if(result){\n                if(tasks[_id].decision.gatewaytype == GatewayType.DBEXCL){\n                     if(isDecisionClosed(_id) == false){\n                        for(uint i = 0; i < tasks[_id].decision.competitors.length; i++){\n                            uint comp_id = tasks[_id].decision.competitors[i];\n                            tasks[comp_id].decision.completed = true;\n                        }                        \n                     }else{\n                        return false;\n                     }\n                }\n                tasks[_id].decision.completed = true;\n                tasks[_id].completed = true;                            \n                emitTaskCompletedEvents(_id);\n                return true;\n            }\n            return false;                \n    }\n    /*\n    * @param: ID of a Task\n    * @returns: bool value if task is completed\n    */\n    function isTaskCompletedById(uint _id) public view returns (bool success){\n        if (tasks[_id].completed == true) {\n            return true;\n        }\n        else return false;\n    }\n\n    /*\n    * @param: Id of a State\n    * @returns: status and description of the Task\n    */\n    function getTaskById(uint _id) public view returns (bool status,\n        string memory description, address resource, Tasktype tasktype,\n        uint[] memory requirements){\n        return (tasks[_id].completed, tasks[_id].activity, tasks[_id].taskresource, tasks[_id].tasktype, tasks[_id].requirements);\n    }\n\n    /*\n    * @param: Id\n    * @returns: status of a task\n    */\n    function getTaskStatusById(uint _id) public view returns (bool){\n        return (tasks[_id].completed);\n    }\n\n    /*\n    * @param: Id\n    * @returns: description of a task\n    */\n    function getTaskActivityById(uint _id) public view returns (string memory){\n        return (tasks[_id].activity);\n    }\n\n    /*\n    * @param: Id\n    * @returns: description of a task\n    */\n    function getTaskRequirementsById(uint _id) public view returns (uint[] memory) {\n        return (tasks[_id].requirements);\n    }\n\n\n    function getCollaboratorCount() public view returns (uint){\n        return collaboratorAddressArray.length;\n    }\n\n    /*\n    * @Returnsd: Amout of States in the Collaboration\n    */\n    function getTaskCount() public view returns (uint){\n        return taskcount;\n    }\n\n    //USING EXPERIMENTALENCODER V2 for struct as args\n    function evaluateDecision(Decision memory _decision) public view returns (bool){\n        if(_decision.typ == DecisionType.STRINGDESC){\n            string memory stringpayload = globalStringPayload[_decision.stringoperants.idtoglobalstringpayload];\n            return DecisionLibrary.evaluate(stringpayload,_decision.operator, _decision.stringoperants.local);\n        }\n        else if(_decision.typ == DecisionType.INTDESC){\n            uint intpayload = globalIntegerPayload[_decision.integeroperants.idtoglobalintegerpayload];\n            return DecisionLibrary.evaluate(intpayload, _decision.operator, _decision.integeroperants.local);\n        }\n    }\n}\n\n\nlibrary DecisionLibrary{\n\n    function evaluate(string memory _firststring,ContractCollaborationManager.Operator _op,string memory _secondstring) public pure returns (bool){\n        if(_op == ContractCollaborationManager.Operator.EQUAL){\n            // Required way to string compare\n            if(keccak256(abi.encodePacked(_firststring)) == keccak256(abi.encodePacked(_secondstring))){\n                return true;\n            }\n            else return false;\n        }\n        else if(_op != ContractCollaborationManager.Operator.NEQ){\n            if(keccak256(abi.encodePacked(_firststring)) != keccak256(abi.encodePacked(_secondstring))){\n                return true;\n            }\n            else return false;\n        }\n        else return false;\n    }\n    // Evaluates a decision based on int\n    function evaluate(uint _firstint, ContractCollaborationManager.Operator _op, uint _secondint)\n        public pure returns(bool status){\n        // a < b\n        if(_op == ContractCollaborationManager.Operator.LESS){\n\n            if(_firstint < _secondint){\n                return true;\n            }\n            else return false;\n        }\n\n        // a > b\n        if(_op == ContractCollaborationManager.Operator.GREATER){\n\n            if(_firstint > _secondint){\n                return true;\n            }\n            else return false;\n        }\n\n        // a = b\n        if(_op == ContractCollaborationManager.Operator.EQUAL){\n\n            if(_firstint == _secondint){\n                return true;\n            }\n            else return false;\n        }\n\n        // a <= b\n        if(_op == ContractCollaborationManager.Operator.LEQ){\n            if(_firstint <= _secondint){\n                return true;\n            }\n            else return false;\n        }\n\n        // a >= b\n        if(_op == ContractCollaborationManager.Operator.GEQ){\n\n            if(_firstint >= _secondint){\n                return true;\n            }\n            else return false;\n        }\n        return false;\n    }\n}\n\n",
  "sourcePath": "/home/nicolas/Dokumente/Github/UBTMasterProject2019/contracts/ContractCollaborationManager.sol",
  "compiler": {
    "name": "solc",
    "version": "0.5.3+commit.10d17f24.Emscripten.clang"
  },
  "schemaVersion": "3.0.1",
  "updatedAt": "2019-03-22T13:38:04.220Z",
  "devdoc": {
    "methods": {}
  },
  "userdoc": {
    "methods": {}
  }
}